{
  "contractName": "Verifier",
  "abi": [
    {
      "anonymous": false,
      "inputs": [
        {
          "indexed": false,
          "name": "s",
          "type": "string"
        }
      ],
      "name": "Verified",
      "type": "event"
    },
    {
      "constant": false,
      "inputs": [
        {
          "name": "a",
          "type": "uint256[2]"
        },
        {
          "name": "a_p",
          "type": "uint256[2]"
        },
        {
          "name": "b",
          "type": "uint256[2][2]"
        },
        {
          "name": "b_p",
          "type": "uint256[2]"
        },
        {
          "name": "c",
          "type": "uint256[2]"
        },
        {
          "name": "c_p",
          "type": "uint256[2]"
        },
        {
          "name": "h",
          "type": "uint256[2]"
        },
        {
          "name": "k",
          "type": "uint256[2]"
        },
        {
          "name": "input",
          "type": "uint256[2]"
        }
      ],
      "name": "verifyTx",
      "outputs": [
        {
          "name": "r",
          "type": "bool"
        }
      ],
      "payable": false,
      "stateMutability": "nonpayable",
      "type": "function"
    }
  ],
  "bytecode": "0x608060405234801561001057600080fd5b5061192c806100206000396000f3fe608060405234801561001057600080fd5b5060043610610048576000357c010000000000000000000000000000000000000000000000000000000090048063fe01ff621461004d575b600080fd5b6102f1600480360361028081101561006457600080fd5b8101908080604001906002806020026040519081016040528092919082600260200280828437600081840152601f19601f820116905080830192505050505050919291929080604001906002806020026040519081016040528092919082600260200280828437600081840152601f19601f82011690508083019250505050505091929192908060800190600280602002604051908101604052809291906000905b8282101561015a578382604002016002806020026040519081016040528092919082600260200280828437600081840152601f19601f82011690508083019250505050505081526020019060010190610106565b50505050919291929080604001906002806020026040519081016040528092919082600260200280828437600081840152601f19601f820116905080830192505050505050919291929080604001906002806020026040519081016040528092919082600260200280828437600081840152601f19601f820116905080830192505050505050919291929080604001906002806020026040519081016040528092919082600260200280828437600081840152601f19601f820116905080830192505050505050919291929080604001906002806020026040519081016040528092919082600260200280828437600081840152601f19601f820116905080830192505050505050919291929080604001906002806020026040519081016040528092919082600260200280828437600081840152601f19601f820116905080830192505050505050919291929080604001906002806020026040519081016040528092919082600260200280828437600081840152601f19601f820116905080830192505050505050919291929050505061030b565b604051808215151515815260200191505060405180910390f35b60006103156116eb565b60408051908101604052808c600060028110151561032f57fe5b602002015181526020018c600160028110151561034857fe5b6020020151815250816000018190525060408051908101604052808b600060028110151561037257fe5b602002015181526020018b600160028110151561038b57fe5b60200201518152508160200181905250604080519081016040528060408051908101604052808c60006002811015156103c057fe5b602002015160006002811015156103d357fe5b602002015181526020018c60006002811015156103ec57fe5b602002015160016002811015156103ff57fe5b6020020151815250815260200160408051908101604052808c600160028110151561042657fe5b6020020151600060028110151561043957fe5b602002015181526020018c600160028110151561045257fe5b6020020151600160028110151561046557fe5b60200201518152508152508160400181905250604080519081016040528089600060028110151561049257fe5b602002015181526020018960016002811015156104ab57fe5b6020020151815250816060018190525060408051908101604052808860006002811015156104d557fe5b602002015181526020018860016002811015156104ee57fe5b60200201518152508160800181905250604080519081016040528087600060028110151561051857fe5b6020020151815260200187600160028110151561053157fe5b60200201518152508160a00181905250604080519081016040528086600060028110151561055b57fe5b6020020151815260200186600160028110151561057457fe5b60200201518152508160e00181905250604080519081016040528085600060028110151561059e57fe5b602002015181526020018560016002811015156105b757fe5b60200201518152508160c00181905250606060026040519080825280602002602001820160405280156105f95781602001602082028038833980820191505090505b50905060008090505b600281101561064757848160028110151561061957fe5b6020020151828281518110151561062c57fe5b90602001906020020181815250508080600101915050610602565b50600061065482846106c4565b14156106b0577f3f3cfdb26fb5f9f1786ab4f1a1f9cd4c0b5e726cbdfc26e495261731aad44e396040518080602001828103825260228152602001806118df6022913960400191505060405180910390a16001925050506106b7565b6000925050505b9998505050505050505050565b60006106ce611761565b6106d6610904565b90508060e001515160018551011415156106ef57600080fd5b6106f76117d1565b6040805190810160405280600081526020016000815250905060008090505b855181101561077657610767826107628560e001516001850181518110151561073b57fe5b90602001906020020151898581518110151561075357fe5b90602001906020020151610f45565b610fe1565b91508080600101915050610716565b5061079d818360e00151600081518110151561078e57fe5b90602001906020020151610fe1565b90506107c6846000015183600001516107b9876020015161109e565b6107c161113a565b611204565b15156107d7576001925050506108fe565b6107fe826020015185604001516107f1876060015161109e565b6107f961113a565b611204565b151561080f576002925050506108fe565b610836846080015183604001516108298760a0015161109e565b61083161113a565b611204565b1515610847576003925050506108fe565b6108938460c0015183606001516108776108728561086d8a600001518b60800151610fe1565b610fe1565b61109e565b8560a00151610889876080015161109e565b8960400151611310565b15156108a4576004925050506108fe565b6108e66108b5828660000151610fe1565b85604001516108c78760e0015161109e565b8560c001516108d9896080015161109e565b6108e161113a565b611310565b15156108f7576005925050506108fe565b6000925050505b92915050565b61090c611761565b604080519081016040528060408051908101604052807f0da507c49d7514581b45ba4a3973e8bca30020608e73ba030d2b38fecca2443781526020017f1b99f7d961dace26703bac2570fc581e8403dacf71017cbb9a7dca7738a80803815250815260200160408051908101604052807f1f73c7d187da234b2e043f73d3dbcc405e41267250552b9a9495e226c35ffc3981526020017f26e4560f6e4c146d29bd77df3b23a5e28a98530fb8526c99470f8d05142d7ad5815250815250816000018190525060408051908101604052807f2ca360b5c5f7061e9df5778477485955931726cffed115cbe5f839193b3141ca81526020017f297c939fb1fb9df29669fafe090cf9aef24e48e6a5cebe638d70fa0c29c7cbaf8152508160200181905250604080519081016040528060408051908101604052807f1a5c0837b7f0007a369e5eb155c3a71b351799f5135bcbacba29f3285fa9b3fb81526020017f2abc5677952a429af9eb828f3d1d5a8d51d87c78a6d3feed960bc736bc5e64f7815250815260200160408051908101604052807f269f2a167bbe792aeffff1f3a76757fe4e55f3fe427769765cdf1fa98e1af37581526020017f221ea8512b83a1c62653f7a08f36eb3e936324ef7df2128cfdf242b9eb88f27c8152508152508160400181905250604080519081016040528060408051908101604052807f2688704b2daa3fe9961ba4b8a47623bb107cea368c0806508a651b281b8d0ee281526020017f2fd636fef31775be8ad8d6373a1f714aee4bde5630ecdbbfcabb1a165438218c815250815260200160408051908101604052807f0e5ae8101ad38babce22ffe03005432323eb56a1f5dd62409b2d6824c8c0a0d081526020017f28d8d2e9c987b3e09b5c36b8820e30d3978cce3c18ba432e13c225c40e82ba4c815250815250816060018190525060408051908101604052807f17ca6434258975ccc8c9a5c4b8afa093e8bcbf8aefcaf0c89df7f8c9da5ee35281526020017f0cd6db0ab3f2be2ae5f56d8cda0086d45417d01ccaf3450313935197acff43158152508160800181905250604080519081016040528060408051908101604052807f06c0228e3bd08ee821e3dd43f5f6220bdf4b7647cf80a6c212f1dc06141954af81526020017f03f550d16cd686a325ff42018d505ab45e392b86440c3c350a0e755dc3cedd91815250815260200160408051908101604052807f18c7fe9af385337b4d3ab7679bc67b194d55028128b150c53f0423a5e749e4ae81526020017f2ae12522258fec95f43fa4882f8422b85eca2c53c7fb8b01bda93b1be304b5d28152508152508160a00181905250604080519081016040528060408051908101604052807f1fb3c6a2f8d84462b29cbcc8563e093024c166d9cea906edeb3a68fc1673c17a81526020017f1a9fa17aed1b09d6df2d73dff21f365e4407f24a2b0d30f7a20a4932072de680815250815260200160408051908101604052807f174653b7283ce5815984910f6b56dde9974119b4355e3f615465f8f22e61858a81526020017f19ad7b8a648c1899af5f5db702475af37de1572881834ec3f3947f7ed370ffa08152508152508160c001819052506003604051908082528060200260200182016040528015610dda57816020015b610dc76117eb565b815260200190600190039081610dbf5790505b508160e0018190525060408051908101604052807f21ecb1cd97cbbbd9b3eb12a2a310c5c7de6f84dbe43e1c26552224553a00595181526020017f04dd308887fe4d1097eba6a225eb58d7d6d9abec56897d3fe33ec0c535ece6688152508160e001516000815181101515610e4b57fe5b9060200190602002018190525060408051908101604052807f1483a8d933194476d917d5d989fb888b9c2de6dd3ff4ceac8e00e9740990ad5581526020017f1e555d02e91b582da21a3d6f34427ba274f1cd7d91899155590443040a9eec4b8152508160e001516001815181101515610ec057fe5b9060200190602002018190525060408051908101604052807f10b52f3d49f574044cbd7246613828d650c864495a64a86f18f1ff3f0016caa881526020017f2ba27e04b12428805ebe246102408cab7276522623f02331a517c30188e73afb8152508160e001516002815181101515610f3557fe5b9060200190602002018190525090565b610f4d6117d1565b610f55611805565b8360000151816000600381101515610f6957fe5b6020020181815250508360200151816001600381101515610f8657fe5b60200201818152505082816002600381101515610f9f57fe5b6020020181815250506000606083608084600060076107d05a03f190508060008114610fca57610fcc565bfe5b50801515610fd957600080fd5b505092915050565b610fe96117d1565b610ff1611828565b836000015181600060048110151561100557fe5b602002018181525050836020015181600160048110151561102257fe5b602002018181525050826000015181600260048110151561103f57fe5b602002018181525050826020015181600360048110151561105c57fe5b602002018181525050600060608360c084600060066107d05a03f19050806000811461108757611089565bfe5b5080151561109657600080fd5b505092915050565b6110a66117d1565b60007f30644e72e131a029b85045b68181585d97816a916871ca8d3c208c16d87cfd479050600083600001511480156110e3575060008360200151145b15611107576040805190810160405280600081526020016000815250915050611135565b60408051908101604052808460000151815260200182856020015181151561112b57fe5b0683038152509150505b919050565b61114261184b565b604080519081016040528060408051908101604052807f198e9393920d483a7260bfb731fb5d25f1aa493335a9e71297e485b7aef312c281526020017f1800deef121f1e76426a00665e5c4479674322d4f75edadd46debd5cd992f6ed815250815260200160408051908101604052807f090689d0585ff075ec9e99ad690c3395bc4b313370b38ef355acdadcd122975b81526020017f12c85ea5db8c6deb4aab71808dcb408fe3d1e7690c43d37b4ce6cc0166fa7daa815250815250905090565b60006060600260405190808252806020026020018201604052801561124357816020015b6112306117eb565b8152602001906001900390816112285790505b5090506060600260405190808252806020026020018201604052801561128357816020015b611270611872565b8152602001906001900390816112685790505b5090508682600081518110151561129657fe5b90602001906020020181905250848260018151811015156112b357fe5b90602001906020020181905250858160008151811015156112d057fe5b90602001906020020181905250838160018151811015156112ed57fe5b906020019060200201819052506113048282611458565b92505050949350505050565b60006060600360405190808252806020026020018201604052801561134f57816020015b61133c6117eb565b8152602001906001900390816113345790505b5090506060600360405190808252806020026020018201604052801561138f57816020015b61137c611872565b8152602001906001900390816113745790505b509050888260008151811015156113a257fe5b90602001906020020181905250868260018151811015156113bf57fe5b90602001906020020181905250848260028151811015156113dc57fe5b90602001906020020181905250878160008151811015156113f957fe5b906020019060200201819052508581600181518110151561141657fe5b906020019060200201819052508381600281518110151561143357fe5b9060200190602002018190525061144a8282611458565b925050509695505050505050565b60008151835114151561146a57600080fd5b60008351905060006006820290506060816040519080825280602002602001820160405280156114a95781602001602082028038833980820191505090505b50905060008090505b838110156116875786818151811015156114c857fe5b906020019060200201516000015182600060068402018151811015156114ea57fe5b9060200190602002018181525050868181518110151561150657fe5b9060200190602002015160200151826001600684020181518110151561152857fe5b9060200190602002018181525050858181518110151561154457fe5b9060200190602002015160000151600060028110151561156057fe5b6020020151826002600684020181518110151561157957fe5b9060200190602002018181525050858181518110151561159557fe5b906020019060200201516000015160016002811015156115b157fe5b602002015182600360068402018151811015156115ca57fe5b906020019060200201818152505085818151811015156115e657fe5b9060200190602002015160200151600060028110151561160257fe5b6020020151826004600684020181518110151561161b57fe5b9060200190602002018181525050858181518110151561163757fe5b9060200190602002015160200151600160028110151561165357fe5b6020020151826005600684020181518110151561166c57fe5b906020019060200201818152505080806001019150506114b2565b50611690611899565b60006020826020860260208601600060086107d05a03f1905080600081146116b7576116b9565bfe5b508015156116c657600080fd5b60008260006001811015156116d757fe5b602002015114159550505050505092915050565b610240604051908101604052806117006117eb565b815260200161170d6117eb565b815260200161171a611872565b81526020016117276117eb565b81526020016117346117eb565b81526020016117416117eb565b815260200161174e6117eb565b815260200161175b6117eb565b81525090565b61032060405190810160405280611776611872565b81526020016117836117eb565b8152602001611790611872565b815260200161179d611872565b81526020016117aa6117eb565b81526020016117b7611872565b81526020016117c4611872565b8152602001606081525090565b604080519081016040528060008152602001600081525090565b604080519081016040528060008152602001600081525090565b606060405190810160405280600390602082028038833980820191505090505090565b608060405190810160405280600490602082028038833980820191505090505090565b60806040519081016040528061185f6118bc565b815260200161186c6118bc565b81525090565b6080604051908101604052806118866118bc565b81526020016118936118bc565b81525090565b602060405190810160405280600190602082028038833980820191505090505090565b604080519081016040528060029060208202803883398082019150509050509056fe5472616e73616374696f6e207375636365737366756c6c792076657269666965642ea165627a7a72305820385a5ffb59e2fee74d481a9c1e398adecf09090f7a1b041cca0e38539ed194250029",
  "source": "// This file is MIT Licensed.\npragma solidity >=0.4.21 <0.6.0;\nlibrary Pairing {\n    struct G1Point {\n        uint X;\n        uint Y;\n    }\n    // Encoding of field elements is: X[0] * z + X[1]\n    struct G2Point {\n        uint[2] X;\n        uint[2] Y;\n    }\n    /// @return the generator of G1\n    function P1() pure internal returns (G1Point memory) {\n        return G1Point(1, 2);\n    }\n    /// @return the generator of G2\n    function P2() pure internal returns (G2Point memory) {\n        return G2Point(\n            [11559732032986387107991004021392285783925812861821192530917403151452391805634,\n             10857046999023057135944570762232829481370756359578518086990519993285655852781],\n            [4082367875863433681332203403145435568316851327593401208105741076214120093531,\n             8495653923123431417604973247489272438418190587263600148770280649306958101930]\n        );\n    }\n    /// @return the negation of p, i.e. p.addition(p.negate()) should be zero.\n    function negate(G1Point memory p) pure internal returns (G1Point memory) {\n        // The prime q in the base field F_q for G1\n        uint q = 21888242871839275222246405745257275088696311157297823662689037894645226208583;\n        if (p.X == 0 && p.Y == 0)\n            return G1Point(0, 0);\n        return G1Point(p.X, q - (p.Y % q));\n    }\n\n    function addition(G1Point memory p1, G1Point memory p2) internal returns (G1Point memory r) {\n        uint[4] memory input;\n        input[0] = p1.X;\n        input[1] = p1.Y;\n        input[2] = p2.X;\n        input[3] = p2.Y;\n        bool success;\n        assembly {\n            success := call(sub(gas, 2000), 6, 0, input, 0xc0, r, 0x60)\n            // Use \"invalid\" to make gas estimation work\n            switch success case 0 { invalid() }\n        }\n        require(success);\n    }\n\n    function scalar_mul(G1Point memory p, uint s) internal returns (G1Point memory r) {\n        uint[3] memory input;\n        input[0] = p.X;\n        input[1] = p.Y;\n        input[2] = s;\n        bool success;\n        assembly {\n            success := call(sub(gas, 2000), 7, 0, input, 0x80, r, 0x60)\n            // Use \"invalid\" to make gas estimation work\n            switch success case 0 { invalid() }\n        }\n        require (success);\n    }\n\n    function pairing(G1Point[] memory p1, G2Point[] memory p2) internal returns (bool) {\n        require(p1.length == p2.length);\n        uint elements = p1.length;\n        uint inputSize = elements * 6;\n        uint[] memory input = new uint[](inputSize);\n        for (uint i = 0; i < elements; i++)\n        {\n            input[i * 6 + 0] = p1[i].X;\n            input[i * 6 + 1] = p1[i].Y;\n            input[i * 6 + 2] = p2[i].X[0];\n            input[i * 6 + 3] = p2[i].X[1];\n            input[i * 6 + 4] = p2[i].Y[0];\n            input[i * 6 + 5] = p2[i].Y[1];\n        }\n        uint[1] memory out;\n        bool success;\n        assembly {\n            success := call(sub(gas, 2000), 8, 0, add(input, 0x20), mul(inputSize, 0x20), out, 0x20)\n            // Use \"invalid\" to make gas estimation work\n            switch success case 0 { invalid() }\n        }\n        require(success);\n        return out[0] != 0;\n    }\n\n    function pairingProd2(G1Point memory a1, G2Point memory a2, G1Point memory b1, G2Point memory b2) internal returns (bool) {\n        G1Point[] memory p1 = new G1Point[](2);\n        G2Point[] memory p2 = new G2Point[](2);\n        p1[0] = a1;\n        p1[1] = b1;\n        p2[0] = a2;\n        p2[1] = b2;\n        return pairing(p1, p2);\n    }\n\n    function pairingProd3(\n            G1Point memory a1, G2Point memory a2,\n            G1Point memory b1, G2Point memory b2,\n            G1Point memory c1, G2Point memory c2\n    ) internal returns (bool) {\n        G1Point[] memory p1 = new G1Point[](3);\n        G2Point[] memory p2 = new G2Point[](3);\n        p1[0] = a1;\n        p1[1] = b1;\n        p1[2] = c1;\n        p2[0] = a2;\n        p2[1] = b2;\n        p2[2] = c2;\n        return pairing(p1, p2);\n    }\n\n    function pairingProd4(\n            G1Point memory a1, G2Point memory a2,\n            G1Point memory b1, G2Point memory b2,\n            G1Point memory c1, G2Point memory c2,\n            G1Point memory d1, G2Point memory d2\n    ) internal returns (bool) {\n        G1Point[] memory p1 = new G1Point[](4);\n        G2Point[] memory p2 = new G2Point[](4);\n        p1[0] = a1;\n        p1[1] = b1;\n        p1[2] = c1;\n        p1[3] = d1;\n        p2[0] = a2;\n        p2[1] = b2;\n        p2[2] = c2;\n        p2[3] = d2;\n        return pairing(p1, p2);\n    }\n}\ncontract Verifier {\n    using Pairing for *;\n    struct VerifyingKey {\n        Pairing.G2Point A;\n        Pairing.G1Point B;\n        Pairing.G2Point C;\n        Pairing.G2Point gamma;\n        Pairing.G1Point gammaBeta1;\n        Pairing.G2Point gammaBeta2;\n        Pairing.G2Point Z;\n        Pairing.G1Point[] IC;\n    }\n    struct Proof {\n        Pairing.G1Point A;\n        Pairing.G1Point A_p;\n        Pairing.G2Point B;\n        Pairing.G1Point B_p;\n        Pairing.G1Point C;\n        Pairing.G1Point C_p;\n        Pairing.G1Point K;\n        Pairing.G1Point H;\n    }\n    function verifyingKey() pure internal returns (VerifyingKey memory vk) {\n        vk.A = Pairing.G2Point([0xda507c49d7514581b45ba4a3973e8bca30020608e73ba030d2b38fecca24437, 0x1b99f7d961dace26703bac2570fc581e8403dacf71017cbb9a7dca7738a80803], [0x1f73c7d187da234b2e043f73d3dbcc405e41267250552b9a9495e226c35ffc39, 0x26e4560f6e4c146d29bd77df3b23a5e28a98530fb8526c99470f8d05142d7ad5]);\n        vk.B = Pairing.G1Point(0x2ca360b5c5f7061e9df5778477485955931726cffed115cbe5f839193b3141ca, 0x297c939fb1fb9df29669fafe090cf9aef24e48e6a5cebe638d70fa0c29c7cbaf);\n        vk.C = Pairing.G2Point([0x1a5c0837b7f0007a369e5eb155c3a71b351799f5135bcbacba29f3285fa9b3fb, 0x2abc5677952a429af9eb828f3d1d5a8d51d87c78a6d3feed960bc736bc5e64f7], [0x269f2a167bbe792aeffff1f3a76757fe4e55f3fe427769765cdf1fa98e1af375, 0x221ea8512b83a1c62653f7a08f36eb3e936324ef7df2128cfdf242b9eb88f27c]);\n        vk.gamma = Pairing.G2Point([0x2688704b2daa3fe9961ba4b8a47623bb107cea368c0806508a651b281b8d0ee2, 0x2fd636fef31775be8ad8d6373a1f714aee4bde5630ecdbbfcabb1a165438218c], [0xe5ae8101ad38babce22ffe03005432323eb56a1f5dd62409b2d6824c8c0a0d0, 0x28d8d2e9c987b3e09b5c36b8820e30d3978cce3c18ba432e13c225c40e82ba4c]);\n        vk.gammaBeta1 = Pairing.G1Point(0x17ca6434258975ccc8c9a5c4b8afa093e8bcbf8aefcaf0c89df7f8c9da5ee352, 0xcd6db0ab3f2be2ae5f56d8cda0086d45417d01ccaf3450313935197acff4315);\n        vk.gammaBeta2 = Pairing.G2Point([0x6c0228e3bd08ee821e3dd43f5f6220bdf4b7647cf80a6c212f1dc06141954af, 0x3f550d16cd686a325ff42018d505ab45e392b86440c3c350a0e755dc3cedd91], [0x18c7fe9af385337b4d3ab7679bc67b194d55028128b150c53f0423a5e749e4ae, 0x2ae12522258fec95f43fa4882f8422b85eca2c53c7fb8b01bda93b1be304b5d2]);\n        vk.Z = Pairing.G2Point([0x1fb3c6a2f8d84462b29cbcc8563e093024c166d9cea906edeb3a68fc1673c17a, 0x1a9fa17aed1b09d6df2d73dff21f365e4407f24a2b0d30f7a20a4932072de680], [0x174653b7283ce5815984910f6b56dde9974119b4355e3f615465f8f22e61858a, 0x19ad7b8a648c1899af5f5db702475af37de1572881834ec3f3947f7ed370ffa0]);\n        vk.IC = new Pairing.G1Point[](3);\n        vk.IC[0] = Pairing.G1Point(0x21ecb1cd97cbbbd9b3eb12a2a310c5c7de6f84dbe43e1c26552224553a005951, 0x4dd308887fe4d1097eba6a225eb58d7d6d9abec56897d3fe33ec0c535ece668);\n        vk.IC[1] = Pairing.G1Point(0x1483a8d933194476d917d5d989fb888b9c2de6dd3ff4ceac8e00e9740990ad55, 0x1e555d02e91b582da21a3d6f34427ba274f1cd7d91899155590443040a9eec4b);\n        vk.IC[2] = Pairing.G1Point(0x10b52f3d49f574044cbd7246613828d650c864495a64a86f18f1ff3f0016caa8, 0x2ba27e04b12428805ebe246102408cab7276522623f02331a517c30188e73afb);\n    }\n    function verify(uint[] memory input, Proof memory proof) internal returns (uint) {\n        VerifyingKey memory vk = verifyingKey();\n        require(input.length + 1 == vk.IC.length);\n        // Compute the linear combination vk_x\n        Pairing.G1Point memory vk_x = Pairing.G1Point(0, 0);\n        for (uint i = 0; i < input.length; i++)\n            vk_x = Pairing.addition(vk_x, Pairing.scalar_mul(vk.IC[i + 1], input[i]));\n        vk_x = Pairing.addition(vk_x, vk.IC[0]);\n        if (!Pairing.pairingProd2(proof.A, vk.A, Pairing.negate(proof.A_p), Pairing.P2())) return 1;\n        if (!Pairing.pairingProd2(vk.B, proof.B, Pairing.negate(proof.B_p), Pairing.P2())) return 2;\n        if (!Pairing.pairingProd2(proof.C, vk.C, Pairing.negate(proof.C_p), Pairing.P2())) return 3;\n        if (!Pairing.pairingProd3(\n            proof.K, vk.gamma,\n            Pairing.negate(Pairing.addition(vk_x, Pairing.addition(proof.A, proof.C))), vk.gammaBeta2,\n            Pairing.negate(vk.gammaBeta1), proof.B\n        )) return 4;\n        if (!Pairing.pairingProd3(\n                Pairing.addition(vk_x, proof.A), proof.B,\n                Pairing.negate(proof.H), vk.Z,\n                Pairing.negate(proof.C), Pairing.P2()\n        )) return 5;\n        return 0;\n    }\n    event Verified(string s);\n    function verifyTx(\n            uint[2] memory a,\n            uint[2] memory a_p,\n            uint[2][2] memory b,\n            uint[2] memory b_p,\n            uint[2] memory c,\n            uint[2] memory c_p,\n            uint[2] memory h,\n            uint[2] memory k,\n            uint[2] memory input\n        ) public returns (bool r) {\n        Proof memory proof;\n        proof.A = Pairing.G1Point(a[0], a[1]);\n        proof.A_p = Pairing.G1Point(a_p[0], a_p[1]);\n        proof.B = Pairing.G2Point([b[0][0], b[0][1]], [b[1][0], b[1][1]]);\n        proof.B_p = Pairing.G1Point(b_p[0], b_p[1]);\n        proof.C = Pairing.G1Point(c[0], c[1]);\n        proof.C_p = Pairing.G1Point(c_p[0], c_p[1]);\n        proof.H = Pairing.G1Point(h[0], h[1]);\n        proof.K = Pairing.G1Point(k[0], k[1]);\n        uint[] memory inputValues = new uint[](input.length);\n        for(uint i = 0; i < input.length; i++){\n            inputValues[i] = input[i];\n        }\n        if (verify(inputValues, proof) == 0) {\n            emit Verified(\"Transaction successfully verified.\");\n            return true;\n        } else {\n            return false;\n        }\n    }\n}",
  "sourcePath": "C:\\Users\\Dovis\\Desktop\\blockchain-captone2\\eth-contracts\\contracts\\Verifier.sol",
  "compiler": {
    "name": "solc",
    "version": "0.5.2+commit.1df8f40c.Emscripten.clang"
  },
  "schemaVersion": "3.3.2",
  "updatedAt": "2020-11-16T04:46:25.124Z",
  "devdoc": {
    "methods": {}
  },
  "userdoc": {
    "methods": {}
  }
}